:1000000014C02EC02DC02CC02BC09DC429C028C038
:100010001EC526C025C024C023C022C037C520C0AD
:100020001FC01EC01DC01CC01BC011241FBECFE5B9
:10003000D2E0DEBFCDBF10E0A0E6B0E0E2E3FCE03E
:1000400002C005900D92AA37B107D9F710E0AAE7D0
:10005000B0E001C01D92AE3DB107E1F71FD1E7C589
:10006000CFCFDF93CF93CDB7DEB7E7E2F0E080E408
:100070008083809164008093C20010928500E6E244
:10008000F0E01082A6E2B0E0E6E2F0E08081806875
:100090008C93A6E2B0E0E6E2F0E0808184608C938D
:1000A000A6E2B0E0E6E2F0E0808182608C93A6E216
:1000B000B0E0E6E2F0E0808181608C93A6E2B0E0FF
:1000C000E6E2F0E0808180648C93CF91DF91089527
:1000D000DF93CF9300D000D000D0CDB7DEB7198228
:1000E0001B821C821D821E821A8238C08A81882F40
:1000F00090E0880F991FFC01E157FF4F80819181AB
:100100002FEF8F3F920761F08A81882F90E0880F50
:10011000991FFC01E157FF4F80819181009711F4F5
:1001200081E089838A81882F90E0880F991FFC01E4
:10013000E157FF4F808191819C0140E050E08B812D
:100140009C81AD81BE81820F931FA41FB51F8B833D
:100150009C83AD83BE838A818F5F8A838A8180314D
:1001600028F28B819C81AD81BE81689413F8B6958D
:10017000A795979587951694D1F78B839C83AD832C
:10018000BE838B819C81AD81BE818B3723EF92072B
:1001900020E0A20720E0B20720F480917A008130AD
:1001A00029F41092B6001092B50033C089818823DB
:1001B000C9F488E89EE7A0E8B0E02B813C814D813E
:1001C0005E81BC01CD0111D5DA01C9018B839C830D
:1001D000AD83BE838B819C819093B6008093B500E4
:1001E0001092830089818823A1F0809183008F5F22
:1001F00080938300809183008A3058F0809183003F
:100200008A3F18F084E0809383001092B600109229
:10021000B50026960FB6F894DEBF0FBECDBFCF91C6
:10022000DF910895DF93CF93CDB7DEB78091C500FE
:100230009091C6009093B3008093B200CF91DF916C
:100240000895DF93CF93CDB7DEB78091C70090912B
:10025000C8009093C1008093C000CF91DF910895B2
:10026000DF93CF93CDB7DEB78091C9009091CA00DC
:100270009093810080938000CF91DF910895DF9368
:10028000CF93CDB7DEB78091CB009091CC00909307
:10029000880080938700CF91DF910895DF93CF93FB
:1002A00000D000D00F92CDB7DEB7E7E3F0E08FEFDC
:1002B0008083E8E3F0E02081E8E3F0E08FEF8083E3
:1002C000E4E3F0E08FEF8083E5E3F0E04081E5E3F5
:1002D000F0E08FEF8083E1E3F0E08FEB8083E2E3F7
:1002E000F0E08FEF8083EAE3F0E01082EBE3F0E0F0
:1002F0001082A895B6DEA6E2B0E0E6E2F0E08081EA
:1003000088608C937894EDE2F0E01082EEE2F0E009
:100310001082A9E5B0E0E9E5F0E0808180628C938D
:10032000EEE4F0E081EC8083A9E5B0E0E9E5F0E0FF
:10033000808184608C93E5E4F0E081E08083E4E4F4
:10034000F0E085E08083A8E5B0E0E8E5F0E08081BA
:1003500080648C931092C30010928E0010928600DD
:100360001092B4001092B1001092C40010927C0060
:100370001092820010928D001092DD001092B80051
:1003800010928A001092B6001092B5008FE0809310
:1003900089001092830080E395E79093B0008093EA
:1003A000AF0001C0A8958091AF009091B0009B83F1
:1003B0008A8319824A815B814115510511F051E010
:1003C00059838A819B8101979093B0008093AF00FD
:1003D0008981882339F7A89525DF33DF41DF4FDF97
:1003E00077DE8091B5009091B60021E0843F9207BE
:1003F00038F08091DD00882319F481E08093DD00DE
:100400008091B5009091B60041E08139940730F4B5
:100410008091DD00882311F01092DD008091B500FD
:100420009091B60055E08A3A950738F08091B8006F
:10043000882319F481E08093B8008091B5009091F1
:10044000B60025E08734920730F48091B800882305
:1004500011F01092B8008091B5009091B60046E07E
:10046000863D940738F080918A00882319F481E052
:1004700080938A008091B5009091B60056E0833752
:10048000950730F480918A00882311F010928A0039
:100490002091B2003091B300809175009091760068
:1004A0002817390738F080918200882319F481E0F9
:1004B00080938200209175003091760080916600D3
:1004C000882F90E0281B390B8091B2009091B300E7
:1004D0002817390730F080918200882311F010929C
:1004E000820080916600282F30E080917700909103
:1004F0007800280F391F8091B2009091B3008217C5
:10050000930738F080918D00882319F481E080935F
:100510008D002091B2003091B300809177009091CE
:1005200078008217930730F080918D00882311F0B6
:1005300010928D00209167003091680080916500D5
:10054000882F90E0281B390B8091C0009091C1004A
:100550002817390738F08091C300882319F481E007
:100560008093C3002091C0003091C100809167004A
:10057000909168002817390730F08091C3008823D4
:1005800011F01092C3002091690030916A008091AF
:100590006500882F90E0281B390B8091C000909156
:1005A000C1002817390738F080918E00882319F48C
:1005B00081E080938E002091C0003091C100809135
:1005C000690090916A002817390730F080918E00F9
:1005D000882311F010928E002091C0003091C1004C
:1005E00080916B0090916C008217930738F0809196
:1005F0008600882319F481E080938600809165004D
:10060000282F30E080916B0090916C00280F391FEB
:100610008091C0009091C1008217930730F08091C3
:100620008600882311F01092860020916D00309191
:100630006E0080916500882F90E0A901481B590B3E
:10064000CA019C012451304080918000909181002A
:100650002817390738F08091B400882319F481E015
:100660008093B400209180003091810080916D00D2
:1006700090916E002817390730F08091B4008823DC
:1006800011F01092B400209180003091810080918F
:100690006F00909170008217930738F08091B1003D
:1006A000882319F481E08093B10080916500282FA0
:1006B00030E080916F0090917000280F391F809179
:1006C0008000909181008217930730F08091B100F3
:1006D000882311F01092B1002091800030918100A8
:1006E00080917300909174008217930738F0809185
:1006F000C400882319F481E08093C40080916500D0
:10070000282F30E08091730090917400280F391FDA
:1007100080918000909181008217930730F0809142
:10072000C400882311F01092C400209187003091FA
:10073000880080917100909172008217930738F0C1
:1007400080917C00882319F481E080937C00809163
:100750006500282F30E08091710090917200280F81
:10076000391F80918700909188008217930730F09D
:1007700080917C00882311F010927C008091DD0034
:10078000882341F4A2E3B0E0E2E3F0E080818B7FD4
:100790008C9307C0A2E3B0E0E2E3F0E080818460E4
:1007A0008C938091B800882341F4A2E3B0E0E2E3A7
:1007B000F0E080818F7E8C9307C0A2E3B0E0E2E39B
:1007C000F0E0808180618C9380918A00882341F0E1
:1007D000A5E3B0E0E5E3F0E080818F7D8C9307C076
:1007E000A5E3B0E0E5E3F0E0808180628C93809146
:1007F0008200882341F4A2E3B0E0E2E3F0E08081EC
:100800008E7F8C9307C0A2E3B0E0E2E3F0E080814A
:1008100081608C9380918D00882341F0A2E3B0E049
:10082000E2E3F0E080818D7F8C9307C0A2E3B0E02B
:10083000E2E3F0E0808182608C938091C3008823A2
:1008400041F4A2E3B0E0E2E3F0E080818F7D8C939D
:1008500007C0A2E3B0E0E2E3F0E0808180628C9325
:1008600080918E00882341F0A2E3B0E0E2E3F0E063
:100870008081877F8C9307C0A2E3B0E0E2E3F0E0E1
:10088000808188608C9380918600882341F4A5E361
:10089000B0E0E5E3F0E080818B7F8C9307C0A5E3B7
:1008A000B0E0E5E3F0E0808184608C938091B40057
:1008B000882341F0A5E3B0E0E5E3F0E080818F7E9E
:1008C0008C9307C0A5E3B0E0E5E3F0E080818061B0
:1008D0008C938091B100882341F4A5E3B0E0E5E377
:1008E000F0E080818E7F8C9307C0A5E3B0E0E5E364
:1008F000F0E0808181608C938091C400882341F076
:10090000A5E3B0E0E5E3F0E080818D7F8C9307C044
:10091000A5E3B0E0E5E3F0E0808182608C93809114
:100920007C00882341F0A5E3B0E0E5E3F0E08081BE
:10093000877F8C9350CDA5E3B0E0E5E3F0E08081C4
:1009400088608C9348CD1F920F920FB60F9211249E
:100950002F933F934F935F938F939F93EF93FF93C7
:10096000DF93CF93CDB7DEB7E6E4F0E080819181ED
:100970009093BB008093BA002091BA003091BB00E5
:1009800080918B0090918C008217930708F043C0F0
:1009900080918400803109F03EC080918900482F09
:1009A00050E02091BA003091BB0080918B00909173
:1009B0008C00281B390BCA01880F991FFC01E157D5
:1009C000FF4F3183208380918900882F90E0880F2A
:1009D000991FFC01E157FF4F808191818436910579
:1009E00068F480918900882F90E0880F991FFC019E
:1009F000E157FF4F8FEF9FEF9183808380918900B4
:100A0000882331F08091890081508093890003C050
:100A10008FE0809389008091BA009091BB00909301
:100A20008C0080938B0080E18093840010927A0088
:100A3000CF91DF91FF91EF919F918F915F914F91B6
:100A40003F912F910F900FBE0F901F9018951F92FE
:100A50000F920FB60F9211248F93DF93CF93CDB7E0
:100A6000DEB780918400882331F08091840081502A
:100A70008093840003C081E080937A00CF91DF915E
:100A80008F910F900FBE0F901F9018951F920F928D
:100A90000FB60F9211242F933F934F935F938F9331
:100AA0009F93AF93BF93EF93FF93DF93CF9300D0C8
:100AB000CDB7DEB7E4E2F0E0808191819A8389834B
:100AC0008091C2008823C9F08091C2008150809338
:100AD000C2009091C20080916400891708F450C050
:100AE00080917D0090917E0029813A81820F931F31
:100AF00090937E0080937D0043C080918500882F75
:100B000090E020917D0030917E00880F991FFC01BC
:100B1000EB53FF4F3183208380918500482F50E0B5
:100B200080918500882F90E0880F991FFC01EB537E
:100B3000FF4F808191819C010024220F331F001CF4
:100B4000220F331F001C232F302DCA01880F991F3D
:100B5000FC01EB53FF4F3183208310927E001092F3
:100B60007D00809164008E5F8093C200809185003B
:100B7000882F90E0FC01E05AFF4F80818093850030
:100B8000E7E2F0E08081882F90E09A838983898171
:100B90009A81807E90709A83898380918500282F26
:100BA00030E089819A81822B932B9A838983E7E2B3
:100BB000F0E089818083A6E2B0E0E6E2F0E08081A7
:100BC00080648C930F900F90CF91DF91FF91EF9104
:100BD000BF91AF919F918F915F914F913F912F91D5
:100BE0000F900FBE0F901F901895A1E21A2EAA1B0E
:100BF000BB1BFD010DC0AA1FBB1FEE1FFF1FA217CD
:100C0000B307E407F50720F0A21BB30BE40BF50BC9
:100C1000661F771F881F991F1A9469F76095709552
:100C2000809590959B01AC01BD01CF010895F8948A
:020C3000FFCFF4
:100C3200010203003F0A0AC10269024F02530293F2
:0A0C420001550150017200D50000B9
:00000001FF
