:1000000014C02EC02DC02CC02BC028C629C028C0AB
:10001000A9C626C025C024C023C022C040C720C016
:100020001FC01EC01DC01CC01BC011241FBECFE5B9
:10003000D2E0DEBFCDBF10E0A0E6B0E0E0E9F0E145
:1000400002C005900D92A637B107D9F711E0A6E7D7
:10005000B0E001C01D92AB30B107E1F702D016C885
:10006000CFCF0F931F93DF93CF9300D000D000D05A
:10007000CDB7DEB7EAE3F0E01082EBE3F0E0108208
:10008000E7E3F0E083EE8083E8E3F0E08FEF808346
:10009000E4E3F0E08FEF8083E5E3F0E08FEF80832F
:1000A000E1E3F0E08FEB8083E2E3F0E08FEF808329
:1000B000A895DBD4A6E2B0E0E6E2F0E080818860BB
:1000C0008C937894EDE2F0E01082EEE2F0E01082A2
:1000D000A9E5B0E0E9E5F0E0808180628C93EEE490
:1000E000F0E081EC8083A9E5B0E0E9E5F0E0808113
:1000F00084608C9310928900809189008093BF0066
:100100008091BF0080930A0180910A0180938D0045
:1001100080918D00809381008091810080937A008E
:1001200080917A008093DF008091DF008093B5009A
:100130008091B5008093B8008091B80080938500CD
:100140008091850080938F0080918F008093DE00E6
:100150001092DC001092DB001092F3001092F2007B
:100160001092BC001092BB008FE080938800109228
:10017000820080E395E79093B4008093B30001C0C0
:10018000A8958091B3009091B4009E838D831C82CA
:100190008D819E81009711F091E09C838D819E81DD
:1001A00001979093B4008093B3002C81222341F7F0
:1001B0001092B90010927800E6E3F0E08081882F79
:1001C00090E080719070009721F081E08093B10001
:1001D00002C01092B1008091B100882309F093C150
:1001E00010928E008EE38093BE001092C200109297
:1001F000C10010927D001092B90080E280937800D7
:10020000A89505D580918E00883009F05CC0ECE39C
:10021000F0E08081882F90E0827090700097B9F7AD
:100220008091C1009091C20081509F4FAC0180919C
:10023000C1009091C200880F991FFC01E753FF4F46
:1002400020813181CA01B901FCD6ECE3F0E0808164
:10025000882F90E0827090700097B9F70091C100EC
:100260001091C2008091C1009091C20081509F4FB7
:10027000E3D69C01C801880F991FFC01E052FF4F93
:10028000318320838091C1009091C200880F991F13
:10029000FC01E052FF4F208131818091C10090919B
:1002A000C200880F991FFC01E753FF4F80819181A5
:1002B0002817390721F481E080937D0002C0109255
:1002C0007D0010928E0080918E00843029F0809104
:1002D0007D00882309F494CF8091C1009091C200E1
:1002E0008930910520F01092C2001092C1008091D7
:1002F000C1009091C2009B838A838A819B81843054
:10030000910509F48AC08A819B8185309105C0F4EA
:100310008A819B818130910509F440C08A819B814B
:100320008130910530F18A819B818230910509F4F9
:100330004AC08A819B818330910509F459C0D5C098
:100340008A819B818630910509F491C08A819B81C5
:100350008630910508F476C08A819B8187309105AB
:1003600009F49AC08A819B818830910509F4A9C05B
:10037000BCC01092B90080E2809378008091C100E7
:100380009091C2002091DB003091DC00880F991F12
:10039000FC01E753FF4F31832083A7C01092B900BF
:1003A00088E0809378008091C1009091C2002091F4
:1003B000DB003091DC00880F991FFC01E753FF4FF1
:1003C0003183208392C084E08093B900109278003A
:1003D0008091C1009091C2002091DB003091DC003F
:1003E000880F991FFC01E753FF4F318320837DC0A5
:1003F00080E18093B900109278008091C1009091C3
:10040000C20020917F0030918000880F991FFC016D
:10041000E753FF4F3183208368C081E08093B900A8
:10042000109278008091C1009091C20020917F00CD
:1004300030918000880F991FFC01E753FF4F3183F3
:10044000208353C088E08093B90010927800809197
:10045000C1009091C2002091860030918700880FE2
:10046000991FFC01E753FF4F318320833EC082E098
:100470008093B900109278008091C1009091C200E1
:1004800020917F0030918000880F991FFC01E75375
:10049000FF4F3183208329C01092B90081E08093FF
:1004A00078008091C1009091C2002091B6003091F7
:1004B000B700880F991FFC01E753FF4F318320835A
:1004C00014C01092B90082E0809378008091C1003E
:1004D0009091C2002091B6003091B700880F991F0B
:1004E000FC01E753FF4F318320838091C10090913D
:1004F000C20001969093C2008093C10010927D00CB
:1005000010928E007DCE198218C08981482F50E04C
:100510008981882F90E0880F991FFC01EC59FF4FCB
:1005200020813181CA01880F991FFC01E753FF4FD9
:100530003183208389818F5F89838981893028F382
:10054000A89565D3BAD28091C9009091CA009C0148
:100550002A5030408091DB009091DC002817390749
:1005600038F08091DE00882319F481E08093DE006A
:100570002091C9003091CA008091DB009091DC008D
:100580002817390730F48091DE00882311F010928B
:10059000DE008091CB009091CC009C012A5030402D
:1005A0008091DB009091DC002817390738F08091AA
:1005B0008F00882319F481E080938F002091CB0075
:1005C0003091CC008091DB009091DC002817390736
:1005D00030F480918F00882311F010928F002091C9
:1005E000CD003091CE008091DB009091DC00281787
:1005F000390738F080918500882319F481E08093D1
:1006000085008091CD009091CE009C01265F3F4FE8
:100610008091DB009091DC002817390730F480913D
:100620008500882311F0109285008091CF00909171
:10063000D0009C012E51304080917F00909180002D
:100640002817390738F08091B800882319F481E021
:100650008093B8002091CF003091D00080917F002E
:10066000909180002817390730F48091B8008823D2
:1006700011F01092B8002091D1003091D2008091F9
:100680007F00909180002817390738F08091B500DD
:10069000882319F481E08093B5008091D100909176
:1006A000D2009C01265F3F4F80917F009091800097
:1006B0002817390730F48091B500882311F0109283
:1006C000B5002091D3003091D400809186009091A4
:1006D00087002817390738F080917A00882319F4A9
:1006E00081E080937A008091D3009091D4009C01A6
:1006F000265F3F4F80918600909187002817390729
:1007000030F480917A00882311F010927A002091C1
:10071000D5003091D60080917F00909180002817FD
:10072000390738F08091DF00882319F481E0809345
:10073000DF008091D5009091D6009C01265F3F4F4D
:1007400080917F00909180002817390730F48091C4
:10075000DF00882311F01092DF002091D700309144
:10076000D8008091B6009091B7008217930738F0B7
:1007700080918100882319F481E080938100809129
:10078000D7009091D8009C012A5030408091B6004B
:100790009091B7008217930730F4809181008823ED
:1007A00011F0109281008091D9009091DA009C01A3
:1007B000265F3F4F8091B6009091B7008217930754
:1007C00038F080918D00882319F481E080938D00AA
:1007D0002091D9003091DA008091B6009091B70055
:1007E0008217930730F480918D00882311F01092C6
:1007F0008D008091BB009091BC0021E0843F920766
:1008000038F080910A01882319F481E080930A016D
:100810008091BB009091BC0021E08039920730F4B8
:1008200080910A01882311F010920A018091BB0087
:100830009091BC0025E08A3A920738F08091BF0081
:10084000882319F481E08093BF008091BB009091D0
:10085000BC0025E08634920730F48091BF008823E5
:1008600011F01092BF008091BB009091BC0026E077
:10087000863D920738F080918900882319F481E041
:10088000809389008091BB009091BC0026E0823764
:10089000920730F480918900882311F0109289002A
:1008A0008091DE00882341F4A2E3B0E0E2E3F0E0CF
:1008B00080818F7D8C9307C0A2E3B0E0E2E3F0E09B
:1008C000808180628C9380918F00882341F0A2E325
:1008D000B0E0E2E3F0E08081877F8C9307C0A2E381
:1008E000B0E0E2E3F0E0808188608C938091850045
:1008F000882341F4A5E3B0E0E5E3F0E080818B7F5D
:100900008C9307C0A5E3B0E0E5E3F0E0808184606C
:100910008C938091B800882341F0A5E3B0E0E5E333
:10092000F0E080818F7E8C9307C0A5E3B0E0E5E323
:10093000F0E0808180618C938091B500882341F440
:10094000A5E3B0E0E5E3F0E080818E7F8C9307C003
:10095000A5E3B0E0E5E3F0E0808181608C938091D5
:100960007A00882341F0A5E3B0E0E5E3F0E0808180
:10097000877F8C9307C0A5E3B0E0E5E3F0E08081DA
:1009800088608C938091DF00882341F0A5E3B0E07C
:10099000E5E3F0E080818D7F8C9307C0A5E3B0E0B4
:1009A000E5E3F0E0808182608C9380918100882370
:1009B00041F4A2E3B0E0E2E3F0E080818E7F8C932B
:1009C00007C0A2E3B0E0E2E3F0E0808181608C93B5
:1009D00080918D00882341F0A2E3B0E0E2E3F0E0F3
:1009E00080818D7F8C9307C0A2E3B0E0E2E3F0E06A
:1009F000808182608C9380910A01882341F4A2E374
:100A0000B0E0E2E3F0E080818B7F8C9307C0A2E34B
:100A1000B0E0E2E3F0E0808184608C938091BF00DD
:100A2000882341F4A2E3B0E0E2E3F0E080818F7E2E
:100A30008C9307C0A2E3B0E0E2E3F0E08081806144
:100A40008C9380918900882341F0A5E3B0E0E5E331
:100A5000F0E080818F7D8C9373CDA5E3B0E0E5E37A
:100A6000F0E0808180628C936BCDDF93CF93CDB724
:100A7000DEB7E7E2F0E080E480838FE38093DD007F
:100A800010928400E6E2F0E01082A6E2B0E0E6E236
:100A9000F0E0808180688C93A6E2B0E0E6E2F0E0CE
:100AA000808187608C93A6E2B0E0E6E2F0E080818E
:100AB00080648C93CF91DF910895DF93CF9300D022
:100AC00000D000D0CDB7DEB719821B821C821D82F8
:100AD0001E821A8238C08A81882F90E0880F991F61
:100AE000FC01E057FF4F808191812FEF8F3F9207EC
:100AF00061F08A81882F90E0880F991FFC01E057F0
:100B0000FF4F80819181009711F481E089838A8170
:100B1000882F90E0880F991FFC01E057FF4F8081DC
:100B200091819C0140E050E08B819C81AD81BE8130
:100B3000820F931FA41FB51F8B839C83AD83BE833D
:100B40008A818F5F8A838A81803128F28B819C81A0
:100B5000AD81BE81689413F8B695A7959795879552
:100B60001694D1F78B839C83AD83BE838B819C814C
:100B7000AD81BE818B3723EF920720E0A20720E0F2
:100B8000B20720F480917600813029F41092BC00E5
:100B90001092BB0033C089818823C9F488E89EE79E
:100BA000A0E8B0E02B813C814D815E81BC01CD018C
:100BB00021D2DA01C9018B839C83AD83BE838B81F3
:100BC0009C819093BC008093BB001092820089812D
:100BD0008823A1F0809182008F5F809382008091B2
:100BE00082008A3058F0809182008A3F18F084E0B9
:100BF000809382001092BC001092BB0026960FB624
:100C0000F894DEBF0FBECDBFCF91DF910895DF9383
:100C1000CF93CDB7DEB78091F2009091F30090931F
:100C2000B7008093B6008091F4009091F500909306
:100C3000DC008093DB008091F6009091F7009093A8
:100C4000800080937F008091F8009091F90090934C
:100C5000870080938600CF91DF9108951F920F92B5
:100C60000FB60F9211242F933F934F935F938F935F
:100C70009F93EF93FF93DF93CF93CDB7DEB7E6E477
:100C8000F0E0808191819093C4008093C300209113
:100C9000C3003091C40080918A0090918B0082172C
:100CA000930708F043C080918300803109F03EC073
:100CB00080918800482F50E02091C3003091C400FB
:100CC00080918A0090918B00281B390BCA01880FF4
:100CD000991FFC01E057FF4F3183208380918800EA
:100CE000882F90E0880F991FFC01E057FF4F80810B
:100CF00091818436910568F480918800882F90E076
:100D0000880F991FFC01E057FF4F8FEF9FEF9183F2
:100D1000808380918800882331F080918800815001
:100D20008093880003C08FE0809388008091C30087
:100D30009091C40090938B0080938A0080E180930F
:100D4000830010927600CF91DF91FF91EF919F91F8
:100D50008F915F914F913F912F910F900FBE0F9008
:100D60001F9018951F920F920FB60F9211248F9318
:100D70009F93AF93BF93EF93FF93DF93CF93CDB741
:100D8000DEB780918300882331F080918300815009
:100D90008093830003C081E0809376008091BE0041
:100DA0008823B1F48EE38093BE00A5E3B0E0E5E3D1
:100DB000F0E090818091B90089278C93A2E3B0E0A4
:100DC000E2E3F0E090818091780089278C9305C060
:100DD0008091BE0081508093BE0080918E00882358
:100DE00009F050C0E6E3F0E08081882F90E08C703D
:100DF00090708C30910531F0E6E3F0E080818C70EA
:100E00008093B2008091B2008F3F21F19091B200A7
:100E10008091B000981771F48091BA008B3020F067
:100E200081E080938C0012C08091BA008F5F809324
:100E3000BA000CC08091B2008093B000109279008B
:100E4000809179008093BA0010928C008FEF80938C
:100E5000B20018C080918C00813089F480917900B3
:100E60008B3038F010928C008091B00080938E000F
:100E700009C0809179008F5F8093790003C085E578
:100E80008093B000CF91DF91FF91EF91BF91AF912F
:100E90009F918F910F900FBE0F901F9018951F92EA
:100EA0000F920FB60F9211242F933F934F935F939E
:100EB0008F939F93AF93BF93EF93FF93DF93CF9362
:100EC00000D0CDB7DEB7E4E2F0E0808191819A8373
:100ED00089838091DD008823B9F08091DD00815005
:100EE0008093DD008091DD00803408F04EC0809159
:100EF0007B0090917C0029813A81820F931F90930F
:100F00007C0080937B0041C080918400882F90E01A
:100F100020917B0030917C00880F991FFC01EE50DE
:100F2000FF4F3183208380918400482F50E08091CF
:100F30008400882F90E0880F991FFC01EE50FF4F2E
:100F4000808191819C010024220F331F001C220FFD
:100F5000331F001C232F302DCA01880F991FFC015D
:100F6000EE50FF4F3183208310927C0010927B0063
:100F700081E48093DD0080918400882F90E0FC0163
:100F8000E05AFF4F808180938400E7E2F0E08081A7
:100F9000882F90E09A83898389819A81807E9070DE
:100FA0009A83898380918400282F30E089819A81F7
:100FB000822B932B9A838983E7E2F0E089818083F7
:100FC000A6E2B0E0E6E2F0E0808180648C930F90CE
:100FD0000F90CF91DF91FF91EF91BF91AF919F91D2
:100FE0008F915F914F913F912F910F900FBE0F9076
:100FF0001F901895A1E21A2EAA1BBB1BFD010DC064
:10100000AA1FBB1FEE1FFF1FA217B307E407F507B8
:1010100020F0A21BB30BE40BF50B661F771F881F94
:10102000991F1A9469F760957095809590959B012A
:10103000AC01BD01CF010895A8E1B0E042E050E06D
:1010400006C00196272F12D010C0DC01CB01FC0195
:10105000E199FECF06C0FFBBEEBBE09A31960DB220
:101060000D9241505040B8F70895262FE199FECFD8
:101070009FBB8EBBE09A01970DB2021631F02DBBDB
:101080000FB6F894E29AE19A0FBE0895F894FFCF54
:1010900001020300C10269024F025302930155018C
:0610A00050017200D500B2
:00000001FF
