:1000000014C02EC02DC02CC02BC02AC629C028C0A9
:10001000ABC626C025C024C023C022C050C720C004
:100020001FC01EC01DC01CC01BC011241FBECFE5B9
:10003000D2E0DEBFCDBF10E0A0E6B0E0EEEBF1E134
:1000400002C005900D92A237B107D9F711E0A2E7DF
:10005000B0E001C01D92A030B107E1F702D0ADC8F9
:10006000CFCF0F931F93DF93CF9300D000D00F9289
:10007000CDB7DEB7EAE3F0E01082EBE3F0E0108208
:10008000E7E3F0E083EE8083E8E3F0E08FEF808346
:10009000E4E3F0E08FEF8083E5E3F0E08FEF80832F
:1000A000E1E3F0E08FEB8083E2E3F0E08FEF808329
:1000B000A89502D4A6E2B0E0E6E2F0E08081886094
:1000C0008C937894EDE2F0E01082EEE2F0E01082A2
:1000D000A9E5B0E0E9E5F0E0808180628C93EEE490
:1000E000F0E081EC8083A9E5B0E0E9E5F0E0808113
:1000F00084608C9310928500809185008093BC0071
:100100008091BC008093FF008091FF008093890064
:100110008091890080937D0080917D00809376009E
:10012000809176008093D8008091D8008093B100B0
:100130008091B1008093B4008091B40080938100DD
:100140008091810080938B0080918B008093D700F9
:100150001A8217C08A81882F90E0880F991FFC01AE
:10016000EA53FF4F118210828A81882F90E0880F16
:10017000991FFC01E752FF4F118210828A818F5F25
:100180008A838A81873030F31092B8001092B700CA
:100190008FE08093840010927E0080E395E7909337
:1001A000B0008093AF0001C0A8958091AF009091FE
:1001B000B0009D838C831B828C819D81009711F000
:1001C00091E09B838C819D8101979093B0008093F7
:1001D000AF002B81222341F71092B50010927400DA
:1001E0008FEF8093AE0010928A00E6E3F0E080810A
:1001F000882F90E080719070009721F081E08093CB
:10020000AD0002C01092AD008091AD00882309F0CE
:10021000BAC08FE18093BA001092BF001092BE0066
:10022000109279001092B50080E280937400A89536
:100230008CEB91E09093D5008093D4008BE292E018
:1002400090937C0080937B008AE992E090938300F6
:100250008093820084E080938A0080918A008830B5
:10026000B9F48091BE009091BF001FD48091BE0070
:100270009091BF008730910548F48091BE00909125
:10028000BF0001969093BF008093BE0010928A0039
:1002900080918A00843059F68091BE009091BF0011
:1002A00004D48091BE009091BF008730910508F082
:1002B00067C08091BE009091BF00AC01440F551FF4
:1002C0008091BE009091BF00880F991FFC01EA53F6
:1002D000FF4F20813181CA01B901C0D60091BE0013
:1002E0001091BF008091BE009091BF00880F991FB0
:1002F00091D69C01C801880F991FFC01E752FF4F5E
:10030000318320838091BE009091BF00880F991F98
:10031000FC01E752FF4F208131818091BE00909116
:10032000BF00880F991FFC01EA53FF4F8081918124
:100330002817390729F58091BE009091BF00880FDA
:10034000991FFC01E752FF4F808191812FEF8F3F72
:100350009207B1F08091BE009091BF00880F991F65
:10036000FC01E752FF4F80819181009749F0809115
:10037000BE009091BF0001969093BF008093BE0095
:1003800010928A0054CF198215C08981082F10E07D
:100390008981882F90E0880F991F3CD69C01C80165
:1003A000880F991FFC01EA53FF4F31832083898115
:1003B0008F5F89838981863040F3A8954FD3A4D27B
:1003C0008091C6009091C7009C012A5030408091D6
:1003D000D4009091D5002817390738F08091D700C4
:1003E000882319F481E08093D7002091C6003091D2
:1003F000C7008091D4009091D5002817390730F4B8
:100400008091D700882311F01092D7008091C80006
:100410009091C9009C012A5030408091D400909165
:10042000D5002817390738F080918B00882319F4FC
:1004300081E080938B002091C8003091C9008091A9
:10044000D4009091D5002817390730F480918B00A3
:10045000882311F010928B002091CA003091CB00BC
:100460008091D4009091D5002817390738F08091F9
:100470008100882319F481E0809381008091CA0073
:100480009091CB009C01265F3F4F8091D4009091CA
:10049000D5002817390730F480918100882311F0A6
:1004A000109281008091CC009091CD009C012E5142
:1004B000304080917B0090917C002817390738F0FC
:1004C0008091B400882319F481E08093B4002091D6
:1004D000CC003091CD0080917B0090917C0028175A
:1004E000390730F48091B400882311F01092B400E1
:1004F0002091CE003091CF0080917B0090917C00C4
:100500002817390738F08091B100882319F481E069
:100510008093B1008091CE009091CF009C01265F26
:100520003F4F80917B0090917C002817390730F471
:100530008091B100882311F01092B1002091D00079
:100540003091D10080918200909183002817390763
:1005500038F080917600882319F481E0809376004A
:100560008091D0009091D1009C01265F3F4F8091F7
:100570008200909183002817390730F4809176002B
:10058000882311F0109276002091D2003091D30090
:1005900080917B0090917C002817390738F080917A
:1005A000D800882319F481E08093D8008091D2008C
:1005B0009091D3009C01265F3F4F80917B009091EA
:1005C0007C002817390730F48091D800882311F077
:1005D0001092D8008091B2009091B30082379105BB
:1005E00038F080917D00882319F481E080937D00AC
:1005F0008091B2009091B3008836910530F48091DB
:100600007D00882311F010927D008091B2009091BE
:10061000B3008F3D910538F080918900882319F44B
:1006200081E0809389008091B2009091B300853D74
:10063000910530F480918900882311F0109289008F
:100640008091B7009091B80021E0843F920738F084
:100650008091FF00882319F481E08093FF0080914E
:10066000B7009091B80021E08039920730F4809172
:10067000FF00882311F01092FF008091B700909145
:10068000B80025E08A3A920738F08091BC008823B0
:1006900019F481E08093BC008091B7009091B8007C
:1006A00025E08634920730F48091BC00882311F055
:1006B0001092BC008091B7009091B80026E0863D72
:1006C000920738F080918500882319F481E08093A7
:1006D00085008091B7009091B80026E0823792079C
:1006E00030F480918500882311F01092850080916C
:1006F000D700882341F4A2E3B0E0E2E3F0E0808198
:100700008F7D8C9307C0A2E3B0E0E2E3F0E080814C
:1007100080628C9380918B00882341F0A2E3B0E04B
:10072000E2E3F0E08081877F8C9307C0A2E3B0E032
:10073000E2E3F0E0808188608C93809181008823DF
:1007400041F4A5E3B0E0E5E3F0E080818B7F8C939A
:1007500007C0A5E3B0E0E5E3F0E0808184608C931E
:100760008091B400882341F0A5E3B0E0E5E3F0E038
:1007700080818F7E8C9307C0A5E3B0E0E5E3F0E0D5
:10078000808180618C938091B100882341F4A5E33E
:10079000B0E0E5E3F0E080818E7F8C9307C0A5E3B5
:1007A000B0E0E5E3F0E0808181608C938091760099
:1007B000882341F0A5E3B0E0E5E3F0E08081877FA6
:1007C0008C9307C0A5E3B0E0E5E3F0E080818860AA
:1007D0008C938091D800882341F0A5E3B0E0E5E355
:1007E000F0E080818D7F8C9307C0A5E3B0E0E5E366
:1007F000F0E0808182608C9380917D00882341F4B9
:10080000A2E3B0E0E2E3F0E080818E7F8C9307C04A
:10081000A2E3B0E0E2E3F0E0808181608C9380911C
:100820008900882341F0A2E3B0E0E2E3F0E08081B8
:100830008D7F8C9307C0A2E3B0E0E2E3F0E080811B
:1008400082608C938091FF00882341F4A2E3B0E0A2
:10085000E2E3F0E080818B7F8C9307C0A2E3B0E0FD
:10086000E2E3F0E0808184608C938091BC00882377
:1008700041F4A2E3B0E0E2E3F0E080818F7E8C936C
:1008800007C0A2E3B0E0E2E3F0E0808180618C93F6
:1008900080918500882341F0A5E3B0E0E5E3F0E036
:1008A00080818F7D8C9389CDA5E3B0E0E5E3F0E016
:1008B000808180628C9381CDDF93CF93CDB7DEB7FB
:1008C000E7E2F0E080E480838FE38093D60010922B
:1008D0008000E6E2F0E01082A6E2B0E0E6E2F0E0BE
:1008E000808180688C93A6E2B0E0E6E2F0E080814F
:1008F00087608C93A6E2B0E0E6E2F0E0808180645D
:100900008C93CF91DF910895DF93CF9300D000D0E7
:1009100000D0CDB7DEB719821B821C821D821E82D9
:100920001A8238C08A81882F90E0880F991FFC01B5
:10093000E457FF4F808191812FEF8F3F920761F045
:100940008A81882F90E0880F991FFC01E457FF4FA0
:1009500080819181009711F481E089838A81882FB9
:1009600090E0880F991FFC01E457FF4F808191812F
:100970009C0140E050E08B819C81AD81BE81820F63
:10098000931FA41FB51F8B839C83AD83BE838A8175
:100990008F5F8A838A81803128F28B819C81AD812F
:1009A000BE81689413F8B695A79597958795169488
:1009B000D1F78B839C83AD83BE838B819C81AD817A
:1009C000BE818B3723EF920720E0A20720E0B20719
:1009D00020F480917200813029F41092B8001092B6
:1009E000B70033C089818823C9F488E89EE7A0E86E
:1009F000B0E02B813C814D815E81BC01CD01BBD338
:100A0000DA01C9018B839C83AD83BE838B819C817A
:100A10009093B8008093B70010927E00898188235C
:100A2000A1F080917E008F5F80937E0080917E0098
:100A30008A3058F080917E008A3F18F084E08093DD
:100A40007E001092B8001092B70026960FB6F89468
:100A5000DEBF0FBECDBFCF91DF910895DF93CF935F
:100A6000CDB7DEB78091E7009091E8009093B30096
:100A70008093B2008091E9009091EA009093D500B4
:100A80008093D4008091EB009091EC0090937C00D7
:100A900080937B008091ED009091EE009093830015
:100AA00080938200CF91DF910895DF93CF9300D0A0
:100AB00000D0CDB7DEB79A8389838091BE00909134
:100AC000BF009C838B838B819C818330910509F4CB
:100AD00063C08B819C818430910560F48B819C8103
:100AE0008130910579F18B819C818230910508F0EC
:100AF0003EC013C08B819C818530910509F476C07E
:100B00008B819C818530910508F45BC08B819C8131
:100B10008630910509F47FC091C01092B50088E03D
:100B2000809374008091BE009091BF002091D4000A
:100B30003091D500880F991FFC01EA53FF4F318394
:100B400020837CC084E08093B50010927400809173
:100B5000BE009091BF002091D4003091D500880F45
:100B6000991FFC01EA53FF4F3183208367C080E166
:100B70008093B500109274008091BE009091BF00E8
:100B80002091D4003091D500880F991FFC01EA53C1
:100B9000FF4F3183208352C081E08093B5001092D3
:100BA00074008091BE009091BF0020917B00309135
:100BB0007C00880F991FFC01EA53FF4F318320838B
:100BC0003DC088E08093B500109274008091BE0013
:100BD0009091BF0020917B0030917C00880F991F7D
:100BE000FC01EA53FF4F3183208328C082E08093C9
:100BF000B500109274008091BE009091BF002091CA
:100C0000820030918300880F991FFC01EA53FF4F47
:100C10003183208313C01092B5001092740080912C
:100C2000BE009091BF0020917B0030917C00880F26
:100C3000991FFC01EA53FF4F318320838091BE004E
:100C40009091BF00880F991FFC01EA53FF4F8081EC
:100C500091810F900F900F900F90CF91DF91089599
:100C60001F920F920FB60F9211242F933F934F9321
:100C70005F938F939F93EF93FF93DF93CF93CDB7C2
:100C8000DEB7E6E4F0E0808191819093C10080932B
:100C9000C0002091C0003091C100809186009091E9
:100CA00087008217930708F043C080917F0080314E
:100CB00009F03EC080918400482F50E02091C00090
:100CC0003091C1008091860090918700281B390BDC
:100CD000CA01880F991FFC01E457FF4F318320831D
:100CE00080918400882F90E0880F991FFC01E457C1
:100CF000FF4F808191818436910568F48091840052
:100D0000882F90E0880F991FFC01E457FF4F8FEF69
:100D10009FEF9183808380918400882331F08091BC
:100D2000840081508093840003C08FE0809384000E
:100D30008091C0009091C1009093870080938600BD
:100D400080E180937F0010927200CF91DF91FF913C
:100D5000EF919F918F915F914F913F912F910F90C4
:100D60000FBE0F901F9018951F920F920FB60F9203
:100D700011248F939F93AF93BF93EF93FF93DF93D0
:100D8000CF93CDB7DEB780917F00882331F080917B
:100D90007F00815080937F0003C081E080937200C8
:100DA0008091BA008823B1F48FE18093BA00A5E363
:100DB000B0E0E5E3F0E090818091B50089278C9365
:100DC000A2E3B0E0E2E3F0E0908180917400892733
:100DD0008C9313C08091BA0081508093BA00A5E330
:100DE000B0E0E5E3F0E08081807E8C93A2E3B0E0A8
:100DF000E2E3F0E08081877D8C9380918A008823F4
:100E000009F050C0E6E3F0E08081882F90E08C701C
:100E100090708C30910531F0E6E3F0E080818C70C9
:100E20008093AE008091AE008F3F21F19091AE0093
:100E30008091AC00981771F48091B600833020F057
:100E400081E08093880012C08091B6008F5F80930C
:100E5000B6000CC08091AE008093AC00109275007B
:100E6000809175008093B600109288008FEF809378
:100E7000AE0018C080918800813089F4809175009F
:100E8000833038F0109288008091AC0080938A0003
:100E900009C0809175008F5F8093750003C085E560
:100EA0008093AC00CF91DF91FF91EF91BF91AF9113
:100EB0009F918F910F900FBE0F901F9018951F92CA
:100EC0000F920FB60F9211242F933F934F935F937E
:100ED0008F939F93AF93BF93EF93FF93DF93CF9342
:100EE00000D0CDB7DEB7E4E2F0E0808191819A8353
:100EF00089838091D6008823B9F08091D6008150F3
:100F00008093D6008091D600803408F04EC0809146
:100F100077009091780029813A81820F931F9093F6
:100F200078008093770041C080918000882F90E006
:100F30002091770030917800880F991FFC01E951CA
:100F4000FF4F3183208380918000482F50E08091B3
:100F50008000882F90E0880F991FFC01E951FF4F16
:100F6000808191819C010024220F331F001C220FDD
:100F7000331F001C232F302DCA01880F991FFC013D
:100F8000E951FF4F3183208310927800109277004F
:100F900081E48093D60080918000882F90E0FC014E
:100FA000E05AFF4F808180938000E7E2F0E080818B
:100FB000882F90E09A83898389819A81807E9070BE
:100FC0009A83898380918000282F30E089819A81DB
:100FD000822B932B9A838983E7E2F0E089818083D7
:100FE000A6E2B0E0E6E2F0E0808180648C930F90AE
:100FF0000F90CF91DF91FF91EF91BF91AF919F91B2
:101000008F915F914F913F912F910F900FBE0F9055
:101010001F901895DF93CF9300D000D0CDB7DEB7E7
:101020009C838B838B819C813CD0882F90E09A831A
:1010300089838B819C81019634D0282F30E089816F
:101040009A81820F931F9A83898389819A810F9055
:101050000F900F900F90CF91DF910895DF93CF9372
:1010600000D000D0CDB7DEB79A8389837C836B83B1
:101070002B818B819C81622F44D08B819C819C0130
:101080002F5F3F4F8B819C81892F9927482FC90162
:10109000642F37D00F900F900F900F90CF91DF916A
:1010A0000895DF93CF9300D00F92CDB7DEB79B8327
:1010B0008A83EFE5F0E080818983F894ECE3F0E047
:1010C0008081882F90E0827090700097B9F7EEE3EE
:1010D000F0E08A819B8191838083ACE3B0E0ECE314
:1010E000F0E0808181608C93EFE5F0E0898180837E
:1010F000EDE3F0E080810F900F900F90CF91DF91A2
:101100000895DF93CF9300D000D0CDB7DEB79B8397
:101110008A836C83EFE5F0E080818983F894ECE3C7
:10112000F0E08081882F90E0827090700097B9F78E
:10113000EEE3F0E08A819B8191838083EDE3F0E030
:101140008C818083ACE3B0E0ECE3F0E080818460EC
:101150008C93ACE3B0E0ECE3F0E0808182608C93B0
:10116000EFE5F0E0898180830F900F900F900F9052
:10117000CF91DF910895A1E21A2EAA1BBB1BFD019E
:101180000DC0AA1FBB1FEE1FFF1FA217B307E40766
:10119000F50720F0A21BB30BE40BF50B661F771FBE
:1011A000881F991F1A9469F760957095809590959E
:0E11B0009B01AC01BD01CF010895F894FFCF63
:1011BE0001020300C10269024F025302930155015D
:0211CE005001CE
:00000001FF
