:1000000014C02EC02DC02CC02BC043C529C028C091
:10001000C4C526C025C024C023C022C05BC620C0E2
:100020001FC01EC01DC01CC01BC011241FBECFE5B9
:10003000D2E0DEBFCDBF10E0A0E6B0E0E4EEFFE02E
:1000400002C005900D92A637B107D9F710E0A6E7D8
:10005000B0E001C01D92AA3FB107E1F702D0C0C7CE
:10006000CFCFDF93CF9300D000D00F92CDB7DEB7C4
:10007000EAE3F0E01082EBE3F0E01082E7E3F0E087
:1000800083EE8083E8E3F0E08FEF8083E4E3F0E049
:100090008FEF8083E5E3F0E08FEF8083E1E3F0E032
:1000A0008FEB8083E2E3F0E08FEF8083A895F8D3B5
:1000B000A6E2B0E0E6E2F0E0808188608C9378947C
:1000C000EDE2F0E01082EEE2F0E01082A9E5B0E0AF
:1000D000E9E5F0E0808180628C93EEE4F0E081EC71
:1000E0008083A9E5B0E0E9E5F0E0808184608C934D
:1000F00010928900809189008093C0008091C00097
:100100008093F9008091F90080938D0080918D009B
:10011000809381008091810080937A0080917A00A1
:100120008093E0008091E0008093B5008091B5005D
:100130008093B8008091B8008093850080918500FD
:1001400080938F0080918F008093DF001092BC001D
:100150001092BB008FE0809388001092820080E3B1
:1001600095E79093B4008093B30001C0A8952091C7
:10017000B3003091B4003D832C831B828C819D8120
:10018000009711F091E09B838C819D810197909362
:10019000B4008093B3002B81222341F71092B90061
:1001A00010927800E6E3F0E08081882F90E0807183
:1001B0009070009721F081E08093B10002C010920E
:1001C000B1008091B100882309F02AC110928E00FD
:1001D0008EE38093BE001092C20010927D001092B8
:1001E000B90080E280937800A89580918E008430D9
:1001F00021F080917D008823B9F38091C20089307D
:1002000010F01092C2008091C200282F30E03A8393
:10021000298389819A818430910509F48FC02981CD
:100220003A8125303105ECF489819A81813091053C
:1002300009F445C029813A81223031052CF48981A5
:100240009A81009739F1E2C029813A812230310543
:1002500009F44AC089819A818330910509F459C013
:10026000D5C029813A812630310509F491C08981B0
:100270009A81863091050CF476C029813A81273025
:10028000310509F49AC089819A818830910509F471
:10029000A9C0BCC01092B90080E280937800809120
:1002A000C200882F90E02091DC003091DD00880FA3
:1002B000991FFC01E753FF4F31832083A7C01092A1
:1002C000B90088E0809378008091C200882F90E088
:1002D0002091DC003091DD00880F991FFC01E7536D
:1002E000FF4F3183208392C084E08093B900109245
:1002F00078008091C200882F90E02091DC0030913E
:10030000DD00880F991FFC01E753FF4F31832083E5
:100310007DC080E18093B900109278008091C20086
:10032000882F90E020917F0030918000880F991FE6
:10033000FC01E753FF4F3183208368C081E0809345
:10034000B900109278008091C200882F90E020912F
:100350007F0030918000880F991FFC01E753FF4F09
:100360003183208353C088E08093B90010927800D5
:100370008091C200882F90E0209186003091870004
:10038000880F991FFC01E753FF4F318320833EC044
:1003900082E08093B900109278008091C200882F8B
:1003A00090E020917F0030918000880F991FFC0120
:1003B000E753FF4F3183208329C01092B90081E0B9
:1003C000809378008091C200882F90E02091B60041
:1003D0003091B700880F991FFC01E753FF4F31831D
:1003E000208314C01092B90082E08093780080913D
:1003F000C200882F90E02091B6003091B700880F9E
:10040000991FFC01E753FF4F318320838091C20085
:100410008F5F8093C20010927D0010928E00E4CE18
:10042000A89510D365D28091DC009091DD0022E088
:10043000883B920738F48091DF00882319F481E02B
:100440008093DF008091DC009091DD0032E0823CFF
:10045000930730F08091DF00882311F01092DF00C5
:100460008091DC009091DD0022E08036920738F424
:1004700080918F00882319F481E080938F00809110
:10048000DC009091DD0032E08A36930730F08091F5
:100490008F00882311F010928F008091DC009091E2
:1004A000DD0022E08035920738F4809185008823B2
:1004B00019F481E0809385008091DC009091DD004B
:1004C00032E08A35930730F080918500882311F05F
:1004D0001092850080917F009091800022E0863309
:1004E000920738F48091B800882319F481E0809352
:1004F000B80080917F009091800032E084359307AE
:1005000030F08091B800882311F01092B8008091EB
:100510007F009091800021E08439920738F4809127
:10052000B500882319F481E08093B50080917F00A5
:100530009091800031E08E39930730F08091B500C2
:10054000882311F01092B50080917F009091800077
:1005500021E08135920738F48091E000882319F476
:1005600081E08093E00080917F009091800031E0F5
:100570008B35930730F08091E000882311F01092C2
:10058000E000809186009091870021E086359207F7
:1005900038F480917A00882319F481E080937A00FE
:1005A000809186009091870031E08036930730F08B
:1005B00080917A00882311F010927A008091B60021
:1005C0009091B7008237910538F08091810088239F
:1005D00019F481E0809381008091B6009091B7007A
:1005E0008836910530F480918100882311F01092B3
:1005F00081008091B6009091B7008F3D910538F051
:1006000080918D00882319F481E080938D00809182
:10061000B6009091B700853D910530F480918D0032
:10062000882311F010928D008091BB009091BC0046
:1006300021E0843F920738F08091F900882319F473
:1006400081E08093F9008091BB009091BC0031E083
:100650008039930730F48091F900882311F01092CB
:10066000F9008091BB009091BC0025E08A3A920786
:1006700038F08091C000882319F481E08093C00095
:100680008091BB009091BC0035E08634930730F434
:100690008091C000882311F01092C0008091BB00AF
:1006A0009091BC0026E0863D920738F08091890049
:1006B000882319F481E0809389008091BB00909198
:1006C000BC0036E08237930730F48091890088239C
:1006D00011F0109289008091DF00882341F4A2E399
:1006E000B0E0E2E3F0E080818F7D8C9307C0A2E36D
:1006F000B0E0E2E3F0E0808180628C9380918F0033
:10070000882341F0A2E3B0E0E2E3F0E08081877F5C
:100710008C9307C0A2E3B0E0E2E3F0E08081886060
:100720008C9380918500882341F4A5E3B0E0E5E354
:10073000F0E080818B7F8C9307C0A5E3B0E0E5E318
:10074000F0E0808184608C938091B800882341F030
:10075000A5E3B0E0E5E3F0E080818F7E8C9307C0F5
:10076000A5E3B0E0E5E3F0E0808180618C938091C7
:10077000B500882341F4A5E3B0E0E5E3F0E0808133
:100780008E7F8C9307C0A5E3B0E0E5E3F0E08081C5
:1007900081608C9380917A00882341F0A5E3B0E0DA
:1007A000E5E3F0E08081877F8C9307C0A5E3B0E0AC
:1007B000E5E3F0E0808188608C938091E0008823FD
:1007C00041F0A5E3B0E0E5E3F0E080818D7F8C931C
:1007D00007C0A5E3B0E0E5E3F0E0808182608C93A0
:1007E00080918100882341F4A2E3B0E0E2E3F0E0ED
:1007F00080818E7F8C9307C0A2E3B0E0E2E3F0E05B
:10080000808181608C9380918D00882341F0A2E3E8
:10081000B0E0E2E3F0E080818D7F8C9307C0A2E33B
:10082000B0E0E2E3F0E0808182608C938091F90097
:10083000882341F4A2E3B0E0E2E3F0E080818B7F23
:100840008C9307C0A2E3B0E0E2E3F0E08081846033
:100850008C938091C000882341F4A2E3B0E0E2E3EE
:10086000F0E080818F7E8C9307C0A2E3B0E0E2E3EA
:10087000F0E0808180618C9380918900882341F031
:10088000A5E3B0E0E5E3F0E080818F7D8C93C8CDF7
:10089000A5E3B0E0E5E3F0E0808180628C93C0CD19
:1008A000DF93CF93CDB7DEB7E7E2F0E080E480835B
:1008B0008FE38093DE0010928400E6E2F0E0108285
:1008C000A6E2B0E0E6E2F0E0808180688C93A6E2E8
:1008D000B0E0E6E2F0E0808187608C93A6E2B0E0D1
:1008E000E6E2F0E0808180648C93CF91DF910895FF
:1008F000DF93CF9300D000D000D0CDB7DEB7198200
:100900001B821C821D821E821A8238C08A81882F17
:1009100090E0880F991FFC01E057FF4F8081918183
:100920002FEF8F3F920761F08A81882F90E0880F28
:10093000991FFC01E057FF4F80819181009711F4CE
:1009400081E089838A81882F90E0880F991FFC01BC
:10095000E057FF4F808191819C0140E050E08B8106
:100960009C81AD81BE81820F931FA41FB51F8B8315
:100970009C83AD83BE838A818F5F8A838A81803125
:1009800028F28B819C81AD81BE81689413F8B69565
:10099000A795979587951694D1F78B839C83AD8304
:1009A000BE838B819C81AD81BE818B3723EF920703
:1009B00020E0A20720E0B20720F480917600813089
:1009C00029F41092BC001092BB0033C089818823A7
:1009D000C9F488E89EE7A0E8B0E02B813C814D8116
:1009E0005E81BC01CD01DAD2DA01C9018B839C831F
:1009F000AD83BE838B819C819093BC008093BB00B0
:100A00001092820089818823A1F0809182008F5FFB
:100A100080938200809182008A3058F08091820019
:100A20008A3F18F084E0809382001092BC001092FC
:100A3000BB0026960FB6F894DEBF0FBECDBFCF9198
:100A4000DF910895DF93CF93CDB7DEB78091E100BA
:100A50009091E2009093B7008093B6008091E300FC
:100A60009091E4009093DD008093DC008091E5009C
:100A70009091E6009093800080937F008091E70042
:100A80009091E8009093870080938600CF91DF914A
:100A900008951F920F920FB60F9211242F933F9338
:100AA0004F935F938F939F93EF93FF93DF93CF9336
:100AB000CDB7DEB7E6E4F0E0808191819093C40089
:100AC0008093C3002091C3003091C40080918A00BC
:100AD00090918B008217930708F043C080918300A8
:100AE000803109F03EC080918800482F50E020916D
:100AF000C3003091C40080918A0090918B00281B24
:100B0000390BCA01880F991FFC01E057FF4F318351
:100B1000208380918800882F90E0880F991FFC0126
:100B2000E057FF4F808191818436910568F4809170
:100B30008800882F90E0880F991FFC01E057FF4F35
:100B40008FEF9FEF9183808380918800882331F01D
:100B50008091880081508093880003C08FE080934B
:100B600088008091C3009091C40090938B00809383
:100B70008A0080E18093830010927600CF91DF910C
:100B8000FF91EF919F918F915F914F913F912F91A5
:100B90000F900FBE0F901F9018951F920F920FB6D7
:100BA0000F9211248F939F93AF93BF93EF93FF9373
:100BB000DF93CF93CDB7DEB780918300882331F0E8
:100BC0008091830081508093830003C081E08093F3
:100BD00076008091BE008823B1F48EE38093BE003E
:100BE000A5E3B0E0E5E3F0E090818091B9008927CA
:100BF0008C93A2E3B0E0E2E3F0E090818091780092
:100C000089278C9305C08091BE0081508093BE00DF
:100C100080918E00882309F050C0E6E3F0E08081E7
:100C2000882F90E08C7090708C30910531F0E6E365
:100C3000F0E080818C708093B2008091B2008F3F91
:100C400021F19091B2008091B000981771F48091D9
:100C5000BA008B3020F081E080938C0012C080912C
:100C6000BA008F5F8093BA000CC08091B20080936D
:100C7000B00010927900809179008093BA001092B0
:100C80008C008FEF8093B20018C080918C0081306F
:100C900089F4809179008B3038F010928C0080912B
:100CA000B00080938E0009C0809179008F5F80939F
:100CB000790003C085E58093B000CF91DF91FF916B
:100CC000EF91BF91AF919F918F910F900FBE0F90B9
:100CD0001F9018951F920F920FB60F9211242F9309
:100CE0003F934F935F938F939F93AF93BF93EF93F4
:100CF000FF93DF93CF9300D0CDB7DEB7E4E2F0E00F
:100D0000808191819A8389838091DE008823B9F064
:100D10008091DE0081508093DE008091DE0080347F
:100D200008F04EC080917B0090917C0029813A812F
:100D3000820F931F90937C0080937B0041C0809131
:100D40008400882F90E020917B0030917C00880FF8
:100D5000991FFC01EF51FF4F318320838091840064
:100D6000482F50E080918400882F90E0880F991FD1
:100D7000FC01EF51FF4F808191819C010024220FE3
:100D8000331F001C220F331F001C232F302DCA01DC
:100D9000880F991FFC01EF51FF4F31832083109280
:100DA0007C0010927B0081E48093DE0080918400BF
:100DB000882F90E0FC01E05AFF4F808180938400EF
:100DC000E7E2F0E08081882F90E09A83898389812F
:100DD0009A81807E90709A83898380918400282FE5
:100DE00030E089819A81822B932B9A838983E7E271
:100DF000F0E089818083A6E2B0E0E6E2F0E0808165
:100E000080648C930F900F90CF91DF91FF91EF91C1
:100E1000BF91AF919F918F915F914F913F912F9192
:100E20000F900FBE0F901F901895DF93CF9300D0B7
:100E300000D0CDB7DEB79B838A836C83ECE3F0E010
:100E40008081882F90E0827090700097B9F7E7E575
:100E5000F0E08081882F90E0817090708823B9F74E
:100E6000EEE3F0E08A819B8191838083EDE3F0E003
:100E70008C818083EFE5F0E080818983F894ACE396
:100E8000B0E0ECE3F0E0808184608C93ACE3B0E010
:100E9000ECE3F0E0808182608C93EFE5F0E0898103
:100EA00080830F900F900F900F90CF91DF91089556
:100EB000DF93CF9300D000D0CDB7DEB79A8389837C
:100EC0007C836B8389819A81880F991F2B81622F84
:100ED000ACDF89819A81880F991F9C012F5F3F4F5A
:100EE0008B819C81892F9927482FC901642F9DDF11
:100EF0000F900F900F900F90CF91DF910895DF9397
:100F0000CF9300D0CDB7DEB79A838983ECE3F0E0CE
:100F10008081882F90E0827090700097B9F7EEE39F
:100F2000F0E089819A8191838083ACE3B0E0ECE3C7
:100F3000F0E0808181608C93EDE3F0E080810F90A0
:100F40000F90CF91DF9108950F931F93DF93CF936D
:100F500000D000D0CDB7DEB79C838B838B819C8182
:100F6000880F991FCCDF082F10E08B819C81880FA0
:100F7000991F0196C4DF882F90E0982F8827800F53
:100F8000911F9A83898389819A810F900F900F9086
:100F90000F90CF91DF911F910F910895A1E21A2E2A
:100FA000AA1BBB1BFD010DC0AA1FBB1FEE1FFF1F0D
:100FB000A217B307E407F50720F0A21BB30BE40B5D
:100FC000F50B661F771F881F991F1A9469F76095A4
:100FD0007095809590959B01AC01BD01CF0108955E
:040FE000F894FFCFB3
:100FE40001020300C10269024F0253029301550139
:060FF40050017200D5005F
:00000001FF
