:1000000014C023C022C021C020C01FC01EC01DC0FC
:100010001CC01BC01AC019C018C017C016C015C01C
:1000200014C013C012C011C010C011241FBECFE5F0
:10003000D2E0DEBFCDBF10E0A0E6B0E001C01D926F
:10004000A736B107E1F702D07DC0DACFDF93CF93B7
:10005000CDB7DEB7EAE3F0E01082EBE3F0E08FEF3C
:100060008083E7E3F0E080EB8083E8E3F0E080EE7C
:100070008083E4E3F0E01082E5E3F0E08FEF80833B
:10008000E1E3F0E086E08083E2E3F0E087E0808374
:10009000A895789439D01092600010926400109264
:1000A0006600A8E3B0E0E8E3F0E080818F7E8C9307
:1000B0008091650034D08091630031D080916200DE
:1000C0002ED0809161002BD0A8E3B0E0E8E3F0E00F
:1000D000808180618C93EBE3F0E0908180916000FF
:1000E000892B80936000E8E3F0E0908180916400C8
:1000F000892B80936400E5E3F0E0908180916600B5
:10010000892B80936600CDCFDF93CF93CDB7DEB739
:10011000EDE2F0E08FE58083CF91DF910895DF93EA
:10012000CF930F92CDB7DEB78983EFE2F0E08981FC
:100130008083EEE2F0E080818823DCF70F90CF919E
:08014000DF910895F894FFCF50
:00000001FF
