:1000000014C023C022C021C020C01FC01EC01DC0FC
:100010001CC01BC01AC019C018C017C016C015C01C
:1000200014C013C012C011C010C011241FBECFE5F0
:10003000D2E0DEBFCDBF10E0A0E6B0E001C01D926F
:10004000A436B107E1F702D031C0DACF9FEF9ABBF7
:100050001BBA8FE487BB80EE88BB94BB15BA8FE7D1
:1000600081BB12BAA895789480E48DB9779BFECFB6
:100070002FB1779BFECF3FB1779BFECF4FB1779BE0
:10008000FECF9FB18BB3282B2BBB88B3382B38BB4B
:1000900085B3482B45BB82B3982B92BBE7CF80E456
:1000A0008DB90895779BFECF8FB10895F894FFCF57
:00000001FF
