:1000000014C02EC02DC02CC02BC0F4C629C028C0DF
:1000100075C726C025C024C023C022C00CC820C07C
:100020001FC01EC01DC01CC01BC011241FBECFE5B9
:10003000D2E0DEBFCDBF10E0A0E6B0E0EEE1F2E13D
:1000400002C005900D92A237B107D9F710E0A2E7E0
:10005000B0E001C01D92AF3FB107E1F702D0DDC8AB
:10006000CFCF0F931F93DF93CF9300D000D00F9289
:10007000CDB7DEB7EAE3F0E01082EBE3F0E0108208
:10008000E7E3F0E083EE8083E8E3F0E08FEF808346
:10009000E4E3F0E08FEF8083E5E3F0E08FEF80832F
:1000A000E1E3F0E08FEB8083E2E3F0E08FEF808329
:1000B000A89531D4A6E2B0E0E6E2F0E08081886065
:1000C0008C937894EDE2F0E01082EEE2F0E01082A2
:1000D000A9E5B0E0E9E5F0E0808180628C93EEE490
:1000E000F0E081EC8083A9E5B0E0E9E5F0E0808113
:1000F00084608C9310928500809185008093BB0072
:100100008091BB008093FE008091FE008093890067
:100110008091890080937D0080917D00809376009E
:10012000809176008093D7008091D7008093B100B2
:100130008091B1008093B4008091B40080938100DD
:100140008091810080938B0080918B008093D600FA
:100150001A8217C08A81882F90E0880F991FFC01AE
:10016000EB53FF4F118210828A81882F90E0880F15
:10017000991FFC01E852FF4F118210828A818F5F24
:100180008A838A81873030F31092B8001092B700CA
:100190008FE08093840010927E0080E395E7909337
:1001A000B0008093AF0001C0A8958091AF009091FE
:1001B000B0009D838C831B828C819D81009711F000
:1001C00091E09B838C819D8101979093B0008093F7
:1001D000AF002B81222341F71092B50010927400DA
:1001E0008FEF8093AE0010928A00E6E3F0E080810A
:1001F000882F90E080719070009721F081E08093CB
:10020000AD0002C01092AD008091AD00882309F0CE
:1002100092C08EE38093BA001092BE001092BD008F
:10022000109279001092B50080E280937400A89536
:1002300044D480918A008830B9F48091BD009091B7
:10024000BE0062D48091BD009091BE0087309105C0
:1002500048F48091BD009091BE0001969093BE003D
:100260008093BD0010928A0080918A008430F9F654
:100270008091BD009091BE0047D48091BD009091C7
:10028000BE008730910508F053C00091BD00109169
:10029000BE008091BD009091BE004996880F991FC5
:1002A00097D79C01C801880F991FFC01E852FF4FA6
:1002B000318320838091BD009091BE00880F991FEB
:1002C000FC01E852FF4F208131818091BD00909167
:1002D000BE00880F991FFC01EB53FF4F8081918175
:1002E0002817390729F58091BD009091BE00880F2D
:1002F000991FFC01E852FF4F808191812FEF8F3FC2
:100300009207B1F08091BD009091BE00880F991FB7
:10031000FC01E852FF4F80819181009749F0809164
:10032000BD009091BE0001969093BE008093BD00E9
:1003300010928A007CCF19826BC0ECE3F0E08081E0
:10034000882F90E0827090700097B9F78981082F0C
:1003500010E08981882F90E04996880F991F38D73F
:100360009C01C801880F991FFC01EB53FF4F31839B
:1003700020838981882F90E0880F991FFC01EB531F
:10038000FF4F808191812FEF8F3F920761F089812C
:10039000882F90E0880F991FFC01EB53FF4F80815D
:1003A0009181009791F58981882F90E04996880F77
:1003B000991FAC018981882F90E0880F991FFC015B
:1003C000EC59FF4F20813181CA01B90106D7ECE316
:1003D000F0E08081882F90E0827090700097B9F7EC
:1003E0008981482F50E08981882F90E0880F991FDC
:1003F000FC01EC59FF4F20813181CA01880F991F00
:10040000FC01EB53FF4F3183208389818F5F898308
:100410008981873008F491CFA8954FD3A4D28091D9
:10042000C5009091C6009C012A5030408091D300B5
:100430009091D4002817390738F08091D60088238E
:1004400019F481E08093D6002091C5003091C60058
:100450008091D3009091D4002817390730F480910F
:10046000D600882311F01092D6008091C700909199
:10047000C8009C012A5030408091D3009091D40054
:100480002817390738F080918B00882319F481E010
:1004900080938B002091C7003091C8008091D300D9
:1004A0009091D4002817390730F480918B0088236D
:1004B00011F010928B002091C9003091CA008091F8
:1004C000D3009091D4002817390738F0809181002B
:1004D000882319F481E0809381008091C900909174
:1004E000CA009C01265F3F4F8091D3009091D400B9
:1004F0002817390730F480918100882311F0109279
:1005000081008091CB009091CC009C012E51304015
:1005100080917B0090917C002817390738F08091FA
:10052000B400882319F481E08093B4002091CB00BB
:100530003091CC0080917B0090917C002817390786
:1005400030F48091B400882311F01092B40020910F
:10055000CD003091CE0080917B0090917C002817D7
:10056000390738F08091B100882319F481E0809335
:10057000B1008091CD009091CE009C01265F3F4F4D
:1005800080917B0090917C002817390730F480918E
:10059000B100882311F01092B1002091CF0030916A
:1005A000D00080917B0090917C002817390738F0AB
:1005B0008091D700882319F481E08093D70080913F
:1005C000CF009091D0009C01265F3F4F80917B002F
:1005D00090917C002817390730F48091D700882348
:1005E00011F01092D7002091D1003091D20080916B
:1005F0008200909183002817390738F080917600A7
:10060000882319F481E0809376008091D100909145
:10061000D2009C01265F3F4F809182009091830021
:100620002817390730F480917600882311F0109252
:1006300076008091B2009091B3008237910538F036
:1006400080917D00882319F481E080937D00809162
:10065000B2009091B3008836910530F480917D000E
:10066000882311F010927D008091B2009091B30028
:100670008F3D910538F080918900882319F481E03D
:10068000809389008091B2009091B300853D9105DF
:1006900030F480918900882311F0109289008091B4
:1006A000B7009091B80021E0843F920738F0809124
:1006B000FE00882319F481E08093FE008091B7004A
:1006C0009091B80021E08039920730F48091FE00CB
:1006D000882311F01092FE008091B7009091B8002D
:1006E00025E08A3A920738F08091BB00882319F4FC
:1006F00081E08093BB008091B7009091B80025E025
:100700008634920730F48091BB00882311F0109258
:10071000BB008091B7009091B80026E0863D92071B
:1007200038F080918500882319F481E0809385005A
:100730008091B7009091B80026E08237920730F49C
:1007400080918500882311F0109285008091D60059
:10075000882341F4A2E3B0E0E2E3F0E080818F7D02
:100760008C9307C0A2E3B0E0E2E3F0E08081806216
:100770008C9380918B00882341F0A2E3B0E0E2E308
:10078000F0E08081877F8C9307C0A2E3B0E0E2E3D2
:10079000F0E0808188608C9380918100882341F40F
:1007A000A5E3B0E0E5E3F0E080818B7F8C9307C0A8
:1007B000A5E3B0E0E5E3F0E0808184608C93809174
:1007C000B400882341F0A5E3B0E0E5E3F0E08081E8
:1007D0008F7E8C9307C0A5E3B0E0E5E3F0E0808175
:1007E00080618C938091B100882341F4A5E3B0E04F
:1007F000E5E3F0E080818E7F8C9307C0A5E3B0E055
:10080000E5E3F0E0808181608C938091D7008823BC
:1008100041F0A5E3B0E0E5E3F0E080818D7F8C93CB
:1008200007C0A5E3B0E0E5E3F0E0808182608C934F
:1008300080917600882341F0A5E3B0E0E5E3F0E0A5
:100840008081877F8C9307C0A5E3B0E0E5E3F0E00B
:10085000808188608C9380917D00882341F4A2E39D
:10086000B0E0E2E3F0E080818E7F8C9307C0A2E3EA
:10087000B0E0E2E3F0E0808181608C9380918900B8
:10088000882341F0A2E3B0E0E2E3F0E080818D7FD5
:100890008C9307C0A2E3B0E0E2E3F0E080818260E5
:1008A0008C938091FE00882341F4A2E3B0E0E2E360
:1008B000F0E080818B7F8C9307C0A2E3B0E0E2E39D
:1008C000F0E0808184608C938091BB00882341F4A8
:1008D000A2E3B0E0E2E3F0E080818F7E8C9307C07A
:1008E000A2E3B0E0E2E3F0E0808180618C9380914C
:1008F0008500882341F0A5E3B0E0E5E3F0E08081E6
:100900008F7D8C9389CDA5E3B0E0E5E3F0E08081B5
:1009100080628C9381CDDF93CF93CDB7DEB7E7E2D2
:10092000F0E080E480838FE38093D5001092800014
:10093000E6E2F0E01082A6E2B0E0E6E2F0E08081DC
:1009400080688C93A6E2B0E0E6E2F0E08081876008
:100950008C93A6E2B0E0E6E2F0E0808180648C93C4
:10096000CF91DF910895DF93CF9300D000D000D0D6
:10097000CDB7DEB719821B821C821D821E821A82AD
:1009800038C08A81882F90E0880F991FFC01E457B6
:10099000FF4F808191812FEF8F3F920761F08A8115
:1009A000882F90E0880F991FFC01E457FF4F80814A
:1009B0009181009711F481E089838A81882F90E0EA
:1009C000880F991FFC01E457FF4F808191819C01A2
:1009D00040E050E08B819C81AD81BE81820F931FEE
:1009E000A41FB51F8B839C83AD83BE838A818F5FD9
:1009F0008A838A81803128F28B819C81AD81BE817E
:100A0000689413F8B695A795979587951694D1F79E
:100A10008B839C83AD83BE838B819C81AD81BE81A2
:100A20008B3723EF920720E0A20720E0B20720F4E3
:100A300080917200813029F41092B8001092B700B2
:100A400033C089818823C9F488E89EE7A0E8B0E034
:100A50002B813C814D815E81BC01CD0197D3DA01B0
:100A6000C9018B839C83AD83BE838B819C819093D2
:100A7000B8008093B70010927E0089818823A1F08E
:100A800080917E008F5F80937E0080917E008A300F
:100A900058F080917E008A3F18F084E080937E00B9
:100AA0001092B8001092B70026960FB6F894DEBFE9
:100AB0000FBECDBFCF91DF910895DF93CF93CDB718
:100AC000DEB78091E6009091E7009093B3008093A9
:100AD000B2008091E8009091E9009093D400809357
:100AE000D3008091EA009091EB0090937C0080937A
:100AF0007B008091EC009091ED00909383008093B7
:100B00008200CF91DF910895DF93CF9300D000D082
:100B1000CDB7DEB79A8389838091BD009091BE00E6
:100B20009C838B838B819C818330910509F4A6C0C3
:100B30008B819C818430910568F48B819C8181300C
:100B4000910509F445C08B819C818230910508F0A4
:100B50006AC013C08B819C818530910509F4E4C083
:100B60008B819C818530910508F4B3C08B819C8179
:100B70008630910509F403C12BC11092B50088E0BD
:100B8000809374008091BD009091BE002091D300AD
:100B90003091D400880F991FFC01EB53FF4F318334
:100BA00020838091BD009091BE004996880F991FC7
:100BB000AC018091BD009091BE00880F991FFC018F
:100BC000EB53FF4F20813181CA01B90106D300C127
:100BD00084E08093B500109274008091BD009091E4
:100BE000BE002091D3003091D400880F991FFC01E2
:100BF000EB53FF4F318320838091BD009091BE0065
:100C00004996880F991FAC018091BD009091BE005C
:100C1000880F991FFC01EB53FF4F20813181CA01DE
:100C2000B901DBD2D5C080E18093B5001092740089
:100C30008091BD009091BE002091D3003091D400EE
:100C4000880F991FFC01EB53FF4F31832083809164
:100C5000BD009091BE004996880F991FAC0180910C
:100C6000BD009091BE00880F991FFC01EB53FF4F10
:100C700020813181CA01B901B0D2AAC081E080933C
:100C8000B500109274008091BD009091BE0020913B
:100C90007B0030917C00880F991FFC01EB53FF4FC4
:100CA000318320838091BD009091BE004996880FCA
:100CB000991FAC018091BD009091BE00880F991FD3
:100CC000FC01EB53FF4F20813181CA01B90185D26C
:100CD0007FC082E08093B500109274008091BD00C7
:100CE0009091BE0020917B0030917C00880F991F6D
:100CF000FC01EB53FF4F318320838091BD00909125
:100D0000BE004996880F991FAC018091BD0090915B
:100D1000BE00880F991FFC01EB53FF4F20813181EA
:100D2000CA01B9015AD254C088E08093B50010922C
:100D300074008091BD009091BE0020917B003091A5
:100D40007C00880F991FFC01EB53FF4F31832083F8
:100D50008091BD009091BE004996880F991FAC010B
:100D60008091BD009091BE00880F991FFC01EB534C
:100D7000FF4F20813181CA01B9012FD229C01092C1
:100D8000B500109274008091BD009091BE0020913A
:100D9000820030918300880F991FFC01EB53FF4FB5
:100DA000318320838091BD009091BE004996880FC9
:100DB000991FAC018091BD009091BE00880F991FD2
:100DC000FC01EB53FF4F20813181CA01B90105D2EB
:100DD0008091BD009091BE00880F991FFC01EB53DC
:100DE000FF4F808191810F900F900F900F90CF91C6
:100DF000DF9108951F920F920FB60F9211242F9337
:100E00003F934F935F938F939F93EF93FF93DF9362
:100E1000CF93CDB7DEB7E6E4F0E080819181909387
:100E2000C0008093BF002091BF003091C00080912E
:100E30008600909187008217930708F043C0809145
:100E40007F00803109F03EC080918400482F50E03F
:100E50002091BF003091C000809186009091870062
:100E6000281B390BCA01880F991FFC01E457FF4F5B
:100E70003183208380918400882F90E0880F991F10
:100E8000FC01E457FF4F808191818436910568F41D
:100E900080918400882F90E0880F991FFC01E4570F
:100EA000FF4F8FEF9FEF9183808380918400882391
:100EB00031F08091840081508093840003C08FE0E2
:100EC000809384008091BF009091C0009093870030
:100ED0008093860080E180937F0010927200CF9112
:100EE000DF91FF91EF919F918F915F914F913F9192
:100EF0002F910F900FBE0F901F9018951F920F9279
:100F00000FB60F9211248F939F93AF93BF93EF93DC
:100F1000FF93DF93CF93CDB7DEB780917F00882317
:100F200031F080917F00815080937F0003C081E089
:100F3000809372008091BA008823B1F48EE380938D
:100F4000BA00A5E3B0E0E5E3F0E090818091B50060
:100F500089278C93A2E3B0E0E2E3F0E090818091F6
:100F6000740089278C9305C08091BA0081508093CA
:100F7000BA0080918A00882309F050C0E6E3F0E0CF
:100F80008081882F90E08C7090708C30910531F0CA
:100F9000E6E3F0E080818C708093AE008091AE003B
:100FA0008F3F21F19091AE008091AC00981771F4C1
:100FB0008091B600863020F081E08093880012C0D6
:100FC0008091B6008F5F8093B6000CC08091AE0018
:100FD0008093AC0010927500809175008093B600EC
:100FE000109288008FEF8093AE0018C08091880027
:100FF000813089F480917500863038F01092880035
:101000008091AC0080938A0009C0809175008F5F49
:101010008093750003C085E58093AC00CF91DF918C
:10102000FF91EF91BF91AF919F918F910F900FBE64
:101030000F901F9018951F920F920FB60F921124C8
:101040002F933F934F935F938F939F93AF93BF9350
:10105000EF93FF93DF93CF9300D0CDB7DEB7E4E2F9
:10106000F0E0808191819A8389838091D5008823E3
:10107000B9F08091D50081508093D5008091D50042
:10108000803408F04EC080917700909178002981DB
:101090003A81820F931F909378008093770041C02C
:1010A00080918000882F90E0209177003091780027
:1010B000880F991FFC01EA51FF4F318320838091F3
:1010C0008000482F50E080918000882F90E0880FAA
:1010D000991FFC01EA51FF4F808191819C010024FE
:1010E000220F331F001C220F331F001C232F302D13
:1010F000CA01880F991FFC01EA51FF4F31832083F9
:10110000109278001092770081E48093D50080914E
:101110008000882F90E0FC01E05AFF4F808180938F
:101120008000E7E2F0E08081882F90E09A83898355
:1011300089819A81807E90709A83898380918000D2
:10114000282F30E089819A81822B932B9A8389837F
:10115000E7E2F0E089818083A6E2B0E0E6E2F0E039
:10116000808180648C930F900F90CF91DF91FF91DD
:10117000EF91BF91AF919F918F915F914F913F916F
:101180002F910F900FBE0F901F901895A1E21A2E6D
:10119000AA1BBB1BFD010DC0AA1FBB1FEE1FFF1F1B
:1011A000A217B307E407F50720F0A21BB30BE40B6B
:1011B000F50B661F771F881F991F1A9469F76095B2
:1011C0007095809590959B01AC01BD01CF0108956C
:1011D000A8E1B0E042E050E005C012D0272F11C0D6
:1011E000DC01CB01FC01E199FECF06C0FFBBEEBBE9
:1011F000E09A31960DB20D9241505040B8F70895E3
:10120000262FE199FECF9FBB8EBB2DBB0FB6F89466
:0E121000E29AE19A0FBE01960895F894FFCF7E
:10121E0001020300C10269024F0253029301500101
:02122E00550168
:00000001FF
